{"abi":[{"type":"constructor","inputs":[{"name":"_poolManager","type":"address","internalType":"address"},{"name":"_liquidityManager","type":"address","internalType":"address"},{"name":"_poolFactory","type":"address","internalType":"address"},{"name":"_nftManager","type":"address","internalType":"address"}],"stateMutability":"nonpayable"},{"type":"function","name":"LIQUIDITY_MANAGER","inputs":[],"outputs":[{"name":"","type":"address","internalType":"address"}],"stateMutability":"view"},{"type":"function","name":"MAX_FEE_RECEIVERS","inputs":[],"outputs":[{"name":"","type":"uint256","internalType":"uint256"}],"stateMutability":"view"},{"type":"function","name":"MAX_POSITIONS","inputs":[],"outputs":[{"name":"","type":"uint256","internalType":"uint256"}],"stateMutability":"view"},{"type":"function","name":"NFT_MANAGER","inputs":[],"outputs":[{"name":"","type":"address","internalType":"contract INonfungiblePositionManager"}],"stateMutability":"view"},{"type":"function","name":"POOL_FACTORY","inputs":[],"outputs":[{"name":"","type":"address","internalType":"contract ICLFactory"}],"stateMutability":"view"},{"type":"function","name":"POOL_MANAGER","inputs":[],"outputs":[{"name":"","type":"address","internalType":"address"}],"stateMutability":"view"},{"type":"function","name":"akAddress","inputs":[],"outputs":[{"name":"","type":"address","internalType":"address"}],"stateMutability":"view"},{"type":"function","name":"burn","inputs":[{"name":"tokenId","type":"uint256","internalType":"uint256"},{"name":"data","type":"bytes","internalType":"bytes"}],"outputs":[{"name":"fees","type":"tuple[]","internalType":"struct TokenAmount[]","components":[{"name":"token","type":"address","internalType":"address"},{"name":"amount","type":"uint256","internalType":"uint256"},{"name":"feeReceiver","type":"address","internalType":"address"}]},{"name":"stashedTokens","type":"tuple[]","internalType":"struct TokenAmount[]","components":[{"name":"token","type":"address","internalType":"address"},{"name":"amount","type":"uint256","internalType":"uint256"},{"name":"feeReceiver","type":"address","internalType":"address"}]}],"stateMutability":"nonpayable"},{"type":"function","name":"claimFees","inputs":[{"name":"tokenId","type":"uint256","internalType":"uint256"}],"outputs":[{"name":"tokenAmounts","type":"tuple[]","internalType":"struct TokenAmount[]","components":[{"name":"token","type":"address","internalType":"address"},{"name":"amount","type":"uint256","internalType":"uint256"},{"name":"feeReceiver","type":"address","internalType":"address"}]}],"stateMutability":"nonpayable"},{"type":"function","name":"claimFees","inputs":[],"outputs":[{"name":"tokenAmounts","type":"tuple[]","internalType":"struct TokenAmount[]","components":[{"name":"token","type":"address","internalType":"address"},{"name":"amount","type":"uint256","internalType":"uint256"},{"name":"feeReceiver","type":"address","internalType":"address"}]}],"stateMutability":"nonpayable"},{"type":"function","name":"decreaseLiquidityForPosition","inputs":[{"name":"tokenId","type":"uint256","internalType":"uint256"},{"name":"data","type":"bytes","internalType":"bytes"}],"outputs":[{"name":"fees","type":"tuple[]","internalType":"struct TokenAmount[]","components":[{"name":"token","type":"address","internalType":"address"},{"name":"amount","type":"uint256","internalType":"uint256"},{"name":"feeReceiver","type":"address","internalType":"address"}]},{"name":"stashedTokens","type":"tuple[]","internalType":"struct TokenAmount[]","components":[{"name":"token","type":"address","internalType":"address"},{"name":"amount","type":"uint256","internalType":"uint256"},{"name":"feeReceiver","type":"address","internalType":"address"}]}],"stateMutability":"nonpayable"},{"type":"function","name":"deposit","inputs":[{"name":"tokenId","type":"uint256","internalType":"uint256"},{"name":"positionOwner","type":"address","internalType":"address"},{"name":"feeReceiver","type":"address","internalType":"address"},{"name":"","type":"bytes","internalType":"bytes"}],"outputs":[],"stateMutability":"nonpayable"},{"type":"function","name":"getPositionDetails","inputs":[{"name":"tokenId","type":"uint256","internalType":"uint256"}],"outputs":[{"name":"","type":"bytes","internalType":"bytes"}],"stateMutability":"view"},{"type":"function","name":"increaseLiquidityForPosition","inputs":[{"name":"tokenId","type":"uint256","internalType":"uint256"},{"name":"amount0","type":"uint256","internalType":"uint256"},{"name":"amount1","type":"uint256","internalType":"uint256"},{"name":"data","type":"bytes","internalType":"bytes"}],"outputs":[{"name":"amount0Used","type":"uint256","internalType":"uint256"},{"name":"amount1Used","type":"uint256","internalType":"uint256"}],"stateMutability":"nonpayable"},{"type":"function","name":"initialize","inputs":[{"name":"_akAddress","type":"address","internalType":"address"},{"name":"poolAddr","type":"address","internalType":"address"}],"outputs":[],"stateMutability":"nonpayable"},{"type":"function","name":"liquidityManager","inputs":[],"outputs":[{"name":"","type":"address","internalType":"address"}],"stateMutability":"view"},{"type":"function","name":"mint","inputs":[{"name":"","type":"address","internalType":"address"},{"name":"mintParams","type":"tuple","internalType":"struct MintParams","components":[{"name":"token0","type":"address","internalType":"address"},{"name":"token1","type":"address","internalType":"address"},{"name":"amount0","type":"uint256","internalType":"uint256"},{"name":"amount1","type":"uint256","internalType":"uint256"},{"name":"tickLower","type":"int24","internalType":"int24"},{"name":"tickUpper","type":"int24","internalType":"int24"},{"name":"owner","type":"address","internalType":"address"},{"name":"feeReceiver","type":"address","internalType":"address"}]},{"name":"data","type":"bytes","internalType":"bytes"}],"outputs":[{"name":"tokenId","type":"uint256","internalType":"uint256"},{"name":"amount0Used","type":"uint256","internalType":"uint256"},{"name":"amount1Used","type":"uint256","internalType":"uint256"}],"stateMutability":"nonpayable"},{"type":"function","name":"nftManager","inputs":[],"outputs":[{"name":"","type":"address","internalType":"contract INonfungiblePositionManager"}],"stateMutability":"view"},{"type":"function","name":"onERC721Received","inputs":[{"name":"","type":"address","internalType":"address"},{"name":"","type":"address","internalType":"address"},{"name":"","type":"uint256","internalType":"uint256"},{"name":"","type":"bytes","internalType":"bytes"}],"outputs":[{"name":"","type":"bytes4","internalType":"bytes4"}],"stateMutability":"nonpayable"},{"type":"function","name":"owner","inputs":[{"name":"tokenId","type":"uint256","internalType":"uint256"}],"outputs":[{"name":"","type":"address","internalType":"address"}],"stateMutability":"view"},{"type":"function","name":"pool","inputs":[],"outputs":[{"name":"","type":"bytes32","internalType":"bytes32"}],"stateMutability":"view"},{"type":"function","name":"poolFactory","inputs":[],"outputs":[{"name":"","type":"address","internalType":"contract ICLFactory"}],"stateMutability":"view"},{"type":"function","name":"poolManager","inputs":[],"outputs":[{"name":"","type":"address","internalType":"address"}],"stateMutability":"view"},{"type":"function","name":"stake","inputs":[{"name":"tokenId","type":"uint256","internalType":"uint256"},{"name":"","type":"bytes","internalType":"bytes"}],"outputs":[],"stateMutability":"nonpayable"},{"type":"function","name":"tokenIds","inputs":[],"outputs":[{"name":"","type":"uint256[]","internalType":"uint256[]"}],"stateMutability":"view"},{"type":"function","name":"tokens","inputs":[],"outputs":[{"name":"token0","type":"address","internalType":"address"},{"name":"token1","type":"address","internalType":"address"}],"stateMutability":"view"},{"type":"function","name":"totalCount","inputs":[],"outputs":[{"name":"","type":"uint256","internalType":"uint256"}],"stateMutability":"view"},{"type":"function","name":"unstake","inputs":[{"name":"tokenId","type":"uint256","internalType":"uint256"},{"name":"","type":"bytes","internalType":"bytes"}],"outputs":[],"stateMutability":"nonpayable"},{"type":"function","name":"withdraw","inputs":[{"name":"","type":"uint256","internalType":"uint256"}],"outputs":[],"stateMutability":"pure"},{"type":"event","name":"FeesClaimed","inputs":[{"name":"tokens","type":"address[]","indexed":false,"internalType":"address[]"},{"name":"amounts","type":"uint256[]","indexed":false,"internalType":"uint256[]"}],"anonymous":false},{"type":"event","name":"Initialize","inputs":[{"name":"pool","type":"address","indexed":false,"internalType":"address"},{"name":"akAddress","type":"address","indexed":false,"internalType":"address"}],"anonymous":false},{"type":"event","name":"Initialized","inputs":[{"name":"version","type":"uint64","indexed":false,"internalType":"uint64"}],"anonymous":false},{"type":"event","name":"LiquidityDecreased","inputs":[{"name":"tokenId","type":"uint256","indexed":false,"internalType":"uint256"},{"name":"amount0Removed","type":"uint256","indexed":false,"internalType":"uint256"},{"name":"amount1Removed","type":"uint256","indexed":false,"internalType":"uint256"}],"anonymous":false},{"type":"event","name":"LiquidityIncreased","inputs":[{"name":"tokenId","type":"uint256","indexed":false,"internalType":"uint256"},{"name":"amount0Added","type":"uint256","indexed":false,"internalType":"uint256"},{"name":"amount1Added","type":"uint256","indexed":false,"internalType":"uint256"}],"anonymous":false},{"type":"event","name":"PositionBurned","inputs":[{"name":"tokenId","type":"uint256","indexed":false,"internalType":"uint256"}],"anonymous":false},{"type":"event","name":"PositionDeposited","inputs":[{"name":"tokenId","type":"uint256","indexed":false,"internalType":"uint256"},{"name":"owner","type":"address","indexed":false,"internalType":"address"},{"name":"feeReceiver","type":"address","indexed":false,"internalType":"address"}],"anonymous":false},{"type":"event","name":"PositionMinted","inputs":[{"name":"tokenId","type":"uint256","indexed":false,"internalType":"uint256"},{"name":"owner","type":"address","indexed":true,"internalType":"address"},{"name":"amount0","type":"uint256","indexed":false,"internalType":"uint256"},{"name":"amount1","type":"uint256","indexed":false,"internalType":"uint256"}],"anonymous":false},{"type":"event","name":"PositionStaked","inputs":[{"name":"tokenId","type":"uint256","indexed":false,"internalType":"uint256"}],"anonymous":false},{"type":"event","name":"PositionUnstaked","inputs":[{"name":"tokenId","type":"uint256","indexed":false,"internalType":"uint256"}],"anonymous":false},{"type":"event","name":"PositionWithdrawn","inputs":[{"name":"tokenId","type":"uint256","indexed":false,"internalType":"uint256"},{"name":"owner","type":"address","indexed":false,"internalType":"address"}],"anonymous":false},{"type":"error","name":"InexistentToken","inputs":[]},{"type":"error","name":"InvalidAddress","inputs":[]},{"type":"error","name":"InvalidInitialization","inputs":[]},{"type":"error","name":"NoGaugeExistsForPool","inputs":[]},{"type":"error","name":"NotInitializing","inputs":[]},{"type":"error","name":"ReentrancyGuardReentrantCall","inputs":[]},{"type":"error","name":"SafeERC20FailedOperation","inputs":[{"name":"token","type":"address","internalType":"address"}]},{"type":"error","name":"TokenIdAlreadyRegistered","inputs":[]},{"type":"error","name":"Unauthorized","inputs":[]},{"type":"error","name":"Unavailable","inputs":[]}],"bytecode":{"object":"0x6101003461018e57601f613db538819003918201601f19168301916001600160401b038311848410176101925780849260809460405283398101031261018e57610048816101a6565b90610055602082016101a6565b61006d6060610066604085016101a6565b93016101a6565b60017f9b779b17422d0df92223018b32b4d1fa46e071723d6817e2486d003becc55f005560809390935260a0526001600160a01b0390811660c0521660e052604051613bfa90816101bb82396080518181816113640152612d38015260a0518181816108ef01528181610d7f015281816115d001528181611e2b01528181611e5b01528181611f8801528181611ff30152818161225b01528181612cb0015281816130c2015281816136b2015261383c015260c05181612cf4015260e0518181816101ff0152818161095201528181610f7b015281816111a7015281816113da01528181611b6501528181611ca501528181611d0401528181611fb801528181612023015281816122890152818161286a01528181612e09015261389c0152f35b5f80fd5b634e487b7160e01b5f52604160045260245ffd5b51906001600160a01b038216820361018e5756fe6080806040526004361015610012575f80fd5b5f905f3560e01c90816302ab54d414612b0f575080630e89439b146127e1578063150b7a021461278b57806316f0115b1461275b5780632e1a7d4d1461273a578063328ad46714612735578063338274381461273557806334eafb11146127175780634219dc40146104ca578063485cc9551461254357806362308e85146104c55780636efb8c9914612180578063714cff561461210a578063740cd403146120ee5780639c2bf9a7146118175780639d63848a1461170f5780639ecceb5e14611666578063a123c33e146115ff578063ac536ca71461131a578063ac68a74814611295578063b7ce1752146104c0578063c3178cba146110ff578063c8fd6ed014610ee1578063d294f093146104cf578063d8e31608146104ca578063dc4c90d3146104c5578063e88b91ea146104c0578063f7b24e08146104a45763fe9d93031461015d575f80fd5b346103735761016b36612c27565b906101746130c0565b61017c6130f2565b610191815f52600560205260405f2054151590565b1561049557808352600660205260408320926020604051946101b286612b31565b80546001600160a01b0390811687526001909101541694019384526101e96101d98361338c565b9360208082518301019101612e71565b60405163133f757160e31b8152600481018590527f00000000000000000000000000000000000000000000000000000000000000006001600160a01b03169290919061018083602481875afa92831561048a5785936103be575b5091604091610291936001600160801b0384519361026085612b7b565b898552166020840152838301526060820152426080820152815180938192630624e65f60e11b835260048301612f9b565b038186865af180156103b357610385575b506102dd6102af8461338c565b848452600660205260408420848155600101849055600280545f1901905595516001600160a01b0316613a65565b803b1561038157818091602460405180948193630852cd8d60e31b83528860048401525af180156103765761035e575b505060207f65d33d8ef62a81711748bbe2a7b67aef94d1a9af04a2690d3a4dfd13d9c1d22b91604051908152a160015f80516020613b858339815191525561035a60405192839283612e38565b0390f35b610369828092612bb1565b610373578061030d565b80fd5b6040513d84823e3d90fd5b5080fd5b6103a69060403d6040116103ac575b61039e8183612bb1565b810190612e71565b506102a2565b503d610394565b6040513d85823e3d90fd5b909250610180813d8211610482575b816103db6101809383612bb1565b8101031261047e5780516bffffffffffffffffffffffff81160361047e57916040918361040d60206102919601612e5d565b50610419848201612e5d565b5061042660608201612e5d565b5061043360808201612f1b565b5061044060a08201612f1b565b5061044d60c08201612f1b565b5061047561016061046060e08401612ec4565b9261046e6101408201612ec4565b5001612ec4565b50935091610243565b8480fd5b3d91506103cd565b6040513d87823e3d90fd5b63055d40f560e21b8352600483fd5b5034610373578060031936011261037357602060405160328152f35b612df4565b612d23565b612cdf565b50346103735780600319360112610373576104e86130c0565b6104f06130f2565b6104f8613ac2565b90815115610ed2576001546040516329bc672160e21b815290602090829060049082906001600160a01b03165afa908115610376578291610e98575b506001600160a01b0316801580159190610e8f5760ff60035b1660035490818102918183041490151715610e7b5761056b90612fef565b93839484928592865b8151811015610cc5576105878183613091565b5188526006602052604088206020604051916105a283612b31565b80546001600160a01b0390811684526001909101541691019081528890815b8b8310610c7d575b15610a32575b5087806109b3575b80156108cf5789805b60206105ec858a613091565b51015115806108c6575b6108bc575b60018401908185116108a8578c906020610615848c613091565b510151158061089f575b610893575b6106519260209261063e926106488561063e8f8c90613091565b51019182516130b3565b9052508a613091565b9052610661575b50600101610574565b909460405163f7c618c160e01b8152602081600481885afa908115610888578a9161084b575b506040516370a0823160e01b8152306004820152906001600160a01b0316602082602481845afa9182156107e5578b92610818575b506106c78886613091565b51863b156108145760405190631c4b774b60e01b825260048201528b81602481838b5af1801561080957908c916107f0575b5050906020602492604051938480926370a0823160e01b82523060048301525afa80156107e5578b906107ae575b6107319250612efa565b916002810180911161079a5760206107498288613091565b5101511580610791575b610786575b9161077f91602061076b60019589613091565b51016107788382516130b3565b90526130b3565b9490610658565b600190970196610758565b50821515610753565b634e487b7160e01b8a52601160045260248afd5b506020823d82116107dd575b816107c760209383612bb1565b810103126107d9576107319151610727565b5f80fd5b3d91506107ba565b6040513d8d823e3d90fd5b816107fa91612bb1565b610805578a5f6106f9565b8a80fd5b6040513d8e823e3d90fd5b8b80fd5b9091506020813d8211610843575b8161083360209383612bb1565b810103126107d95751905f6106bc565b3d9150610826565b90506020813d8211610880575b8161086560209383612bb1565b8101031261087c5761087690612e5d565b5f610687565b8980fd5b3d9150610858565b6040513d8c823e3d90fd5b60019b909b019a610624565b5083151561061f565b634e487b7160e01b8d52601160045260248dfd5b98600101986105fb565b508015156105f6565b61094e60406108de8587613091565b518151906108eb82612b60565b81527f00000000000000000000000000000000000000000000000000000000000000006001600160a01b031660208201526001600160801b038282018190526060820152815163fc6f786560e01b81529283918e91839182919060048301612e87565b03917f00000000000000000000000000000000000000000000000000000000000000006001600160a01b03165af19081156107e5578b908c92610992575b506105e0565b90506109ac915060403d81116103ac5761039e8183612bb1565b905f61098c565b506109eb60206109c38486613091565b5160405163c69deec560e01b8152306004820152602481019190915291829081906044820190565b0381885afa908115610888578a91610a04575b506105d7565b610a25915060203d8111610a2b575b610a1d8183612bb1565b810190612f29565b5f6109fe565b503d610a13565b600154604051630dfe168160e01b81529b6001600160a01b039091169060208d600481855afa9c8d15610809578c9d610c42575b50600160a01b60019003835116604051809e610a8182612b96565b6001600160a01b0316905260208e018d905260408e0152610aa1816130a5565b9c610aac828a613091565b52610ab79088613091565b5060405180809263d21220a760e01b82525a92600491602094fa9081156107e5578c8c8c928194610bfa575b50845160405194610b3593610b219390926001600160a01b031691610b0788612b96565b6001600160a01b03168752602087015260408601526130a5565b9d8e93610b2e828c613091565b5289613091565b50610b41575b506105cf565b60405163f7c618c160e01b81529b909160208d6004818a5afa9c8d15610809578c9d610bbf575b50600160a01b600190039051168b604051809e610b8482612b96565b6001600160a01b031681526020015260408d0152610ba1906130a5565b9a610bac8288613091565b52610bb79086613091565b505f80610b3b565b909c506020813d8211610bf2575b81610bda60209383612bb1565b8101031261081457610beb90612e5d565b9b5f610b68565b3d9150610bcd565b93505050506020813d8211610c3a575b81610c1760209383612bb1565b810103126108055789610b35610b218e610c318f95612e5d565b94915091610ae3565b3d9150610c0a565b909c506020813d8211610c75575b81610c5d60209383612bb1565b8101031261081457610c6e90612e5d565b9b5f610a66565b3d9150610c50565b9a929892916001600160a01b036040610c96838a613091565b51015183516001600160a01b0316911614610cb857600101919a9892986105c1565b919a5060019892986105c9565b50509194928690825181145f14610e0f575050925b80610e06575b610d4b575b61035a837fbe07e9fe93cdaf6fdbc5e600c3f9a8168a88092641318e79d3430cdd78c74ee7610d13826139ac565b90610d2360405192839283612f41565b0390a160015f80516020613b8583398151915255604051918291602083526020830190612d9a565b60206004916040519283809263f7c618c160e01b82525afa918215610dfa578092610db4575b5061035a93610dad929091507f0000000000000000000000000000000000000000000000000000000000000000906001600160a01b03166132ca565b8280610ce5565b9091506020823d602011610df2575b81610dd060209383612bb1565b81010312610373575061035a92610de9610dad92612e5d565b91819450610d71565b3d9150610dc3565b604051903d90823e3d90fd5b50831515610ce0565b610e1b90959295612fef565b948490855b838110610e305750505050610cda565b6020610e3c8284613091565b510151610e4c575b600101610e20565b9160018091610e5b8585613091565b51610e66828c613091565b52610e71818b613091565b5001929050610e44565b634e487b7160e01b84526011600452602484fd5b60ff600261054d565b90506020813d602011610eca575b81610eb360209383612bb1565b8101031261038157610ec490612e5d565b5f610534565b3d9150610ea6565b63a3b8915f60e01b8152600490fd5b503461037357610ef036612c27565b50610ef96130c0565b610f016130f2565b610f16815f52600560205260405f2054151590565b156110f0576001546040516329bc672160e21b815290602090829060049082906001600160a01b03165afa9081156103b35783916110b2575b506001600160a01b031680156110a3576040516331a9108f60e11b8152600481018390526020816024817f00000000000000000000000000000000000000000000000000000000000000006001600160a01b03165afa80156110985782918591611058575b506001600160a01b03160361104a578083913b1561038157818091602460405180948193632e1a7d4d60e01b83528860048401525af1801561037657611035575b507fea25a39ba4819baec45b17c092ad388b8f2af19492f254afa737a884da321e2c602083604051908152a160015f80516020613b858339815191525580f35b8161103f91612bb1565b61038157815f610ff5565b6282b42960e81b8352600483fd5b9150506020813d602011611090575b8161107460209383612bb1565b8101031261108c576110868291612e5d565b5f610fb4565b8380fd5b3d9150611067565b6040513d86823e3d90fd5b639b40d3b560e01b8352600483fd5b90506020813d6020116110e8575b816110cd60209383612bb1565b810103126110e4576110de90612e5d565b5f610f4f565b8280fd5b3d91506110c0565b63055d40f560e21b8252600482fd5b50346103735761110e36612c27565b906111176130c0565b61111f6130f2565b611134815f52600560205260405f2054151590565b15610495579182604061115c61114c6111a29661338c565b9460208082518301019101612ed8565b906001600160801b0384519361117185612b7b565b868552166020840152838301526060820152426080820152815180968192630624e65f60e11b835260048301612f9b565b0381857f00000000000000000000000000000000000000000000000000000000000000006001600160a01b03165af1938415610376578294611250575b50908161122d61120f7f9fff09bdb699560e15269e01134083f4348f16ba2a38e7dcca3a2f0dfcfe639f9461338c565b95604051938493846040919493926060820195825260208201520152565b0390a160015f80516020613b858339815191525561035a60405192839283612e38565b61128d9194507f9fff09bdb699560e15269e01134083f4348f16ba2a38e7dcca3a2f0dfcfe639f925060403d6040116103ac5761039e8183612bb1565b9390916111df565b503461037357602036600319011261037357600435906112b36130c0565b6112bb6130f2565b6112d0825f52600560205260405f2054151590565b1561130b5761035a6112e18361338c565b7fbe07e9fe93cdaf6fdbc5e600c3f9a8168a88092641318e79d3430cdd78c74ee7610d13826139ac565b63055d40f560e21b8152600490fd5b503461037357608036600319011261037357600435611337612c6f565b90611340612c85565b916064356001600160401b03811161047e57611360903690600401612bd2565b50337f00000000000000000000000000000000000000000000000000000000000000006001600160a01b03161415806115cc575b6115be576113a06130f2565b600254603281146115af576113c0835f52600560205260405f2054151590565b6115a0576040516331a9108f60e11b8152600481018490527f00000000000000000000000000000000000000000000000000000000000000006001600160a01b03169190602081602481865afa908115611595578791611557575b50336001600160a01b039091160361154957600101600255849061143e84613b0c565b5061144885613309565b6040519261145584612b31565b6001600160a01b039081168085529581166020808601828152878652600690915260408520955186549084166001600160a01b0319918216178755905160019096018054969093169516949094179055919391803b15610381578180916064604051809481936323b872dd60e01b83523360048401523060248401528960448401525af1801561037657611530575b507f508ef4932b840253349d4a3f8c40c4b274fdc9b16e944b2ca978d2f3df50aec8606084868560405192835260208301526040820152a160015f80516020613b858339815191525580f35b8161153d91949394612bb1565b61108c5790835f6114e4565b6282b42960e81b8652600486fd5b90506020813d60201161158d575b8161157260209383612bb1565b810103126115895761158390612e5d565b5f61141b565b8680fd5b3d9150611565565b6040513d89823e3d90fd5b631bb815a560e31b8552600485fd5b63a3b8915f60e01b8552600485fd5b6282b42960e81b8452600484fd5b50337f00000000000000000000000000000000000000000000000000000000000000006001600160a01b03161415611394565b5034610373576020366003190112610373576004358152600660205260408120906040519161162d83612b31565b80546001600160a01b03908116845260019091015416602083018190521561130b5781516040516001600160a01b039091168152602090f35b50346103735760203660031901126103735760043581526006602052604081206040519061169382612b31565b80546001600160a01b0390811683526001909101541660208201818152919015610495576040805191516001600160a01b039081166020840190815293511682820152808252916116e5606083612bb1565b8251938492602084525180928160208601528585015e828201840152601f01601f19168101030190f35b5034610373578060031936011261037357600154604051630dfe168160e01b8152906001600160a01b0316602082600481845afa9182156103b35783926117d6575b5060206004916040519283809263d21220a760e01b82525afa928315610dfa578093611797575b5050604080516001600160a01b03928316815292909116602083015290f35b909192506020823d6020116117ce575b816117b460209383612bb1565b8101031261037357506117c690612e5d565b905f80611778565b3d91506117a7565b9091506020813d60201161180f575b816117f260209383612bb1565b810103126110e4576020611807600492612e5d565b929150611751565b3d91506117e5565b50346103735761014036600319011261037357611832612c59565b506101003660231901126103735760405161010081018181106001600160401b038211176120da57604052611865612c6f565b815261186f612c85565b90602081019182526064356040820152608435606082015260a4358060020b810361108c57608082015260c4358060020b810361108c5760a082015260e4356001600160a01b038116810361108c5760c0820152610104356001600160a01b038116810361108c5760e0820152610124356001600160401b03811161108c576118fc903690600401612bd2565b6119046130c0565b61190c6130f2565b6001546001600160a01b03161580156120ce575b6120bf578060208061193793518301019101612e71565b825184516040516370a0823160e01b81523060048201526001600160a01b03928316979392909116916020826024818b5afa91821561109857849261208b575b506040516370a0823160e01b815230600482015294602086602481875afa95861561048a578596612057575b50604087015180611fec575b50606087015180611f81575b5060028054600101905560e08701516119dc906001600160a01b0316613309565b865197516001546040516334324e9f60e21b81526001600160a01b039a8b169a92831692909160209183916004918391165afa908115611595578791611f47575b50608089015160020b60a08a015160020b9060408b01519260608c0151946040519d8e61018081019081106001600160401b03821117611f33578f90916020926040528152015260020b60408d015260608c015260808b015260a08a015260c089015260e08801526101008701523061012087015242610140870152826101608701526040519563b5007d1f60e01b875260018060a01b03815116600488015260018060a01b036020820151166024880152604081015160020b6044880152606081015160020b6064880152608081015160020b608488015260a081015160a488015260c081015160c488015260e081015160e488015261010081015161010488015260018060a01b036101208201511661012488015261014081015161014488015261016060018060a01b0391015116610164870152608086610184818660018060a01b037f0000000000000000000000000000000000000000000000000000000000000000165af19586156103b3578396611ef1575b50611b9f86613b0c565b5060c085015160e0860151604051916001916001600160a01b039081169116611bc784612b31565b83526020808401918252898752600681526040808820945185546001600160a01b031990811660a087901b87900392831617875593519490950180549093166001600160a01b039490951693909316939093179055516370a0823160e01b81523060048201529190826024818b5afa8015611098578490611ebd575b611c4d9250612efa565b926040516370a0823160e01b8152306004820152602081602481865afa90811561109857908492918391611e85575b50602091611c8991612efa565b9785611e55575b88611e25575b60405163095ea7b360e01b81527f00000000000000000000000000000000000000000000000000000000000000006001600160a01b031660048201526024810184905292839160449183915af180156103b357916020918493611e0a575b5060405163095ea7b360e01b81527f00000000000000000000000000000000000000000000000000000000000000006001600160a01b031660048201526024810185905293849160449183915af1908115610dfa575061035a9392611d7292611d6792611ded575b506040840151612efa565b946060830151612efa565b60c0919091015160408051858152602081018790529081018390526001600160a01b03909116907f860a7f444abeeac636e14426419bf48578cd6ce60a51ed3d48fcaf6a9412aba490606090a260015f80516020613b8583398151915255604051938493846040919493926060820195825260208201520152565b611e059060203d602011610a2b57610a1d8183612bb1565b611d5c565b611e2090833d8511610a2b57610a1d8183612bb1565b611cf4565b611e50897f0000000000000000000000000000000000000000000000000000000000000000866132ca565b611c96565b611e80867f0000000000000000000000000000000000000000000000000000000000000000836132ca565b611c90565b9250506020823d602011611eb5575b81611ea160209383612bb1565b810103126107d95790518391906020611c7c565b3d9150611e94565b506020823d602011611ee9575b81611ed760209383612bb1565b810103126107d957611c4d9151611c43565b3d9150611eca565b9095506080813d608011611f2b575b81611f0d60809383612bb1565b810103126110e457611f23602082519201612ec4565b50945f611b95565b3d9150611f00565b634e487b7160e01b8d52604160045260248dfd5b90506020813d602011611f79575b81611f6260209383612bb1565b8101031261158957611f7390612f1b565b5f611a1d565b3d9150611f55565b611fad90307f00000000000000000000000000000000000000000000000000000000000000008761312a565b6060870151611fe6907f00000000000000000000000000000000000000000000000000000000000000006001600160a01b0316866131bc565b5f6119bb565b61201890307f00000000000000000000000000000000000000000000000000000000000000008c61312a565b6040870151612051907f00000000000000000000000000000000000000000000000000000000000000006001600160a01b03168b6131bc565b5f6119af565b9095506020813d602011612083575b8161207360209383612bb1565b810103126107d95751945f6119a3565b3d9150612066565b9091506020813d6020116120b7575b816120a760209383612bb1565b810103126107d95751905f611977565b3d915061209a565b63a3b8915f60e01b8452600484fd5b50603260025414611920565b634e487b7160e01b83526041600452602483fd5b5034610373578060031936011261037357602060405160058152f35b5034610373578060031936011261037357604051906004548083528260208101600484526020842092845b81811061216757505061214a92500383612bb1565b815115610ed2576040516020808252819061035a90820185612d67565b8454835260019485019487945060209093019201612135565b503461037357608036600319011261037357604435906024356004356064356001600160401b03811161108c576121bb903690600401612bd2565b936121c46130c0565b6121cc6130f2565b6121e1825f52600560205260405f2054151590565b1561253457600154604051630dfe168160e01b81526001600160a01b039091169190602081600481865afa9081156124ea5786916124f5575b5060405163d21220a760e01b81526001600160a01b0390911692602090829060049082905afa9081156124ea5786916124ac575b506001600160a01b0316917f0000000000000000000000000000000000000000000000000000000000000000906122878630848461312a565b7f00000000000000000000000000000000000000000000000000000000000000006001600160a01b0316976122e7906122c1888b856131bc565b6122cd8530868961312a565b6122d8858b886131bc565b60208082518301019101612e71565b986040519160c083018381106001600160401b0382111761249857908a939291604052888352602083019b8a8d526040840191888352606085019081526080850191825260a08501924284526040519e8f9663219f5d1760e01b88525160048801525160248701525160448601525160648501525160848401525160a4830152815a9360c492606095f1958615611595576040988897612429575b50917f3e7eb8fbb7b6a8eb3e381b450c3f3d92463dfc879765790e9853f3024269edd99593916123be886123b88b809997612efa565b94612efa565b928281612418575b50505081612407575b5050865191825250602081019190915260408101839052606090a160015f80516020613b858339815191525582519182526020820152f35b612410926132ca565b5f80806123cf565b612421926132ca565b5f80826123c6565b6123be95939198506123b897509161247b7f3e7eb8fbb7b6a8eb3e381b450c3f3d92463dfc879765790e9853f3024269edd997959360603d606011612491575b6124738183612bb1565b810190612ed8565b909a909950959794965092949193909250612382565b503d612469565b634e487b7160e01b8b52604160045260248bfd5b90506020813d6020116124e2575b816124c760209383612bb1565b810103126124de576124d890612e5d565b5f61224e565b8580fd5b3d91506124ba565b6040513d88823e3d90fd5b90506020813d60201161252c575b8161251060209383612bb1565b810103126124de576020612525600492612e5d565b915061221a565b3d9150612503565b63055d40f560e21b8452600484fd5b50346103735760403660031901126103735761255d612c59565b612565612c6f565b905f80516020613ba5833981519152549160ff8360401c1615926001600160401b0381168015908161270f575b6001149081612705575b1590816126fc575b506126ed5767ffffffffffffffff1981166001175f80516020613ba583398151915255836126c1575b506001600160a01b038216801580156126b0575b6126a157600180546001600160a01b039384166001600160a01b03199182168117909255865416919091178555604080519182529290911660208201527fdc90fed0326ba91706deeac7eb34ac9f8b680734f9d782864dc29704d23bed6a9190a16126495780f35b68ff0000000000000000195f80516020613ba583398151915254165f80516020613ba5833981519152557fc7f505b2f371ae2175ee4913f4499e1f2633a7b5936321eed1cdaeb6115181d2602060405160018152a180f35b63e6c4247b60e01b8552600485fd5b506001600160a01b038216156125e1565b68ffffffffffffffffff191668010000000000000001175f80516020613ba5833981519152555f6125cd565b63f92ee8a960e01b8552600485fd5b9050155f6125a4565b303b15915061259c565b859150612592565b50346103735780600319360112610373576020600254604051908152f35b612c9b565b50346103735760203660031901126103735763a3b8915f60e01b8152600490fd5b503461037357806003193601126103735760206bffffffffffffffffffffffff1960015460601b16604051908152f35b5034610373576080366003190112610373576127a5612c59565b506127ae612c6f565b506064356001600160401b038111610381576127ce903690600401612bd2565b50604051630a85bd0160e11b8152602090f35b50346107d9576127f036612c27565b506127f96130c0565b6128016130f2565b612816815f52600560205260405f2054151590565b15612b0057805f52600660205260405f206040519061283482612b31565b80546001600160a01b03908116835260019091015481166020808401919091526040516331a9108f60e11b8152600481018590527f0000000000000000000000000000000000000000000000000000000000000000909216919081602481855afa908115612a44575f91612ac6575b50306001600160a01b0390911603612ab8576001546040516329bc672160e21b81529190602090839060049082906001600160a01b03165afa918215612a44575f92612a7c575b506001600160a01b038216928315612a6d575160408051612951926001600160a01b031661291782612b60565b87825260208201526001600160801b03828201526001600160801b03606082015281518093819263fc6f786560e01b835260048301612e87565b03815f865af18015612a4457612a4f575b50803b156107d95760405163095ea7b360e01b81526001600160a01b03929092166004830152602482018490525f908290604490829084905af18015612a4457612a2f575b508083913b156103815781809160246040518094819363b6b55f2560e01b83528860048401525af1801561037657612a1a575b507f469c7933c4def3539088b68c7babd59af76c6c2c95773688da9d6021e749e028602083604051908152a160015f80516020613b858339815191525580f35b81612a2491612bb1565b61038157815f6129da565b612a3c9193505f90612bb1565b5f915f6129a7565b6040513d5f823e3d90fd5b612a679060403d6040116103ac5761039e8183612bb1565b50612962565b639b40d3b560e01b5f5260045ffd5b9091506020813d602011612ab0575b81612a9860209383612bb1565b810103126107d957612aa990612e5d565b905f6128ea565b3d9150612a8b565b6282b42960e81b5f5260045ffd5b90506020813d602011612af8575b81612ae160209383612bb1565b810103126107d957612af290612e5d565b5f6128a3565b3d9150612ad4565b63055d40f560e21b5f5260045ffd5b346107d9575f3660031901126107d9575f546001600160a01b03168152602090f35b604081019081106001600160401b03821117612b4c57604052565b634e487b7160e01b5f52604160045260245ffd5b608081019081106001600160401b03821117612b4c57604052565b60a081019081106001600160401b03821117612b4c57604052565b606081019081106001600160401b03821117612b4c57604052565b90601f801991011681019081106001600160401b03821117612b4c57604052565b81601f820112156107d9578035906001600160401b038211612b4c5760405192612c06601f8401601f191660200185612bb1565b828452602083830101116107d957815f926020809301838601378301015290565b9060406003198301126107d95760043591602435906001600160401b0382116107d957612c5691600401612bd2565b90565b600435906001600160a01b03821682036107d957565b602435906001600160a01b03821682036107d957565b604435906001600160a01b03821682036107d957565b346107d9575f3660031901126107d9576040517f00000000000000000000000000000000000000000000000000000000000000006001600160a01b03168152602090f35b346107d9575f3660031901126107d9576040517f00000000000000000000000000000000000000000000000000000000000000006001600160a01b03168152602090f35b346107d9575f3660031901126107d9576040517f00000000000000000000000000000000000000000000000000000000000000006001600160a01b03168152602090f35b90602080835192838152019201905f5b818110612d845750505090565b8251845260209384019390920191600101612d77565b90602080835192838152019201905f5b818110612db75750505090565b825180516001600160a01b039081168652602082810151818801526040928301519091169186019190915260609094019390920191600101612daa565b346107d9575f3660031901126107d9576040517f00000000000000000000000000000000000000000000000000000000000000006001600160a01b03168152602090f35b9091612e4f612c5693604084526040840190612d9a565b916020818403910152612d9a565b51906001600160a01b03821682036107d957565b91908260409103126107d9576020825192015190565b91909160606001600160801b038160808401958051855260018060a01b036020820151166020860152826040820151166040860152015116910152565b51906001600160801b03821682036107d957565b908160609103126107d957612eec81612ec4565b916040602083015192015190565b91908203918211612f0757565b634e487b7160e01b5f52601160045260245ffd5b51908160020b82036107d957565b908160209103126107d9575180151581036107d95790565b9291604084019360408152825180955260206060820193015f955b808710612f78575050612c569394506020818403910152612d67565b81516001600160a01b031685526001969096019560209485019490910190612f5c565b91909160808060a0830194805184526001600160801b03602082015116602085015260408101516040850152606081015160608501520151910152565b6001600160401b038111612b4c5760051b60200190565b90612ff982612fd8565b6130066040519182612bb1565b8281528092613017601f1991612fd8565b01905f5b82811061302757505050565b60209060405161303681612b96565b5f81525f838201525f60408201528282850101520161301b565b80511561305d5760200190565b634e487b7160e01b5f52603260045260245ffd5b80516001101561305d5760400190565b80516002101561305d5760600190565b805182101561305d5760209160051b010190565b5f198114612f075760010190565b91908201809211612f0757565b7f00000000000000000000000000000000000000000000000000000000000000006001600160a01b03163303612ab857565b60025f80516020613b85833981519152541461311b5760025f80516020613b8583398151915255565b633ee5aeb560e01b5f5260045ffd5b6040516323b872dd60e01b5f9081526001600160a01b039384166004529290931660245260449390935260209060648180865af19060015f511482161561319b575b6040525f6060521561317b5750565b635274afe760e01b5f9081526001600160a01b0391909116600452602490fd5b9060018115166131b357823b15153d1516169061316c565b503d5f823e3d90fd5b916040519163095ea7b360e01b5f5260018060a01b031691826004528160245260205f60448180885af19060015f51148216156132bb575b6040521561320157505050565b60405163095ea7b360e01b5f52826004525f60245260205f60448180885af19060015f51148216156132a3575b60405215613285576040519163095ea7b360e01b5f5260045260245260205f60448180865af19060015f511482161561326d575b6040521561317b5750565b9060018115166131b357823b15153d15161690613262565b635274afe760e01b5f9081526001600160a01b038416600452602490fd5b9060018115166131b357843b15153d1516169061322e565b90843b15153d151616906131f4565b916040519163a9059cbb60e01b5f5260018060a01b031660045260245260205f60448180865af19060015f511482161561326d576040521561317b5750565b5f90613313613ac2565b5f5b8151811015613384576133288183613091565b515f908152600660205260409020600101546001600160a01b0384811691161461335457600101613315565b5050505060015b1561336257565b6003546005811461337557600101600355565b63a3b8915f60e01b5f5260045ffd5b50505061335b565b6001546040516329bc672160e21b81525f9291602090829060049082906001600160a01b03165afa908115612a44575f91613972575b506001600160a01b03168015801593919061396b575b83613908575b83156138ff5760ff60035b16925f916133f685612fef565b958015613827575f805b8161381e575b80613814575b600154604051630dfe168160e01b81526001600160a01b0390911692602082600481875afa918215612a44575f926137d1575b5092602091600494885f526006845260018060a01b03600160405f20015416906040519261346c84612b96565b6001600160a01b031683528483015260408201526134898c613050565b526134938b613050565b5060405163d21220a760e01b815293849182905afa918215612a44575f92613795575b50845f52600660205260018060a01b03600160405f2001541690604051926134dd84612b96565b6001600160a01b03168352602083015260408201526134fb88613071565b5261350587613071565b50613585575b505082810361351b575b50505090565b61352490612fef565b92815b83811061353a57505050505f8080613515565b60206135468284613091565b510151613556575b600101613527565b91600180916135658585613091565b516135708289613091565b5261357b8188613091565b500192905061354e565b60405163f7c618c160e01b81526001600160a01b03919091169190602081600481865afa908115612a44575f9161375b575b506040516370a0823160e01b81523060048201526001600160a01b039190911692602082602481875afa918215612a44575f92613727575b50803b156107d9575f8091602460405180948193631c4b774b60e01b83528860048401525af18015612a4457613712575b506040516370a0823160e01b815230600482015290602082602481875afa80156124ea5786906136de575b6136559250612efa565b90816136a8575b8452600660205260018060a01b03600160408620015416906040519261368184612b96565b83526020830152604082015261369685613081565b526136a084613081565b505f8061350b565b926001906136d7837f0000000000000000000000000000000000000000000000000000000000000000866132ca565b019261365c565b506020823d60201161370a575b816136f860209383612bb1565b810103126107d957613655915161364b565b3d91506136eb565b61371f9195505f90612bb1565b5f935f613620565b9091506020813d602011613753575b8161374360209383612bb1565b810103126107d95751905f6135ef565b3d9150613736565b90506020813d60201161378d575b8161377660209383612bb1565b810103126107d95761378790612e5d565b5f6135b7565b3d9150613769565b9091506020813d6020116137c9575b816137b160209383612bb1565b810103126107d9576137c290612e5d565b905f6134b6565b3d91506137a4565b9150926020823d60201161380c575b816137ed60209383612bb1565b810103126107d957600493613803602093612e5d565b9250909361343f565b3d91506137e0565b946001019461340c565b60019550613406565b6138976040805161383781612b60565b8581527f00000000000000000000000000000000000000000000000000000000000000006001600160a01b031660208201526001600160801b038282018190526060820152815163fc6f786560e01b815292839182919060048301612e87565b03815f7f00000000000000000000000000000000000000000000000000000000000000006001600160a01b03165af1908115612a44575f905f926138dd575b5090613400565b90506138f8915060403d6040116103ac5761039e8183612bb1565b905f6138d6565b60ff60026133e9565b60405163c69deec560e01b8152306004820152602481018490529093506020816044816001600160a01b0388165afa908115612a44575f9161394c575b50926133de565b613965915060203d602011610a2b57610a1d8183612bb1565b5f613945565b505f6133d8565b90506020813d6020116139a4575b8161398d60209383612bb1565b810103126107d95761399e90612e5d565b5f6133c2565b3d9150613980565b9081516139b881612fd8565b906139c66040519283612bb1565b8082526139d5601f1991612fd8565b01366020830137808351916139e983612fd8565b926139f76040519485612bb1565b808452613a06601f1991612fd8565b01366020850137825f5b8651811015613a5c576001906001600160a01b03613a2e828a613091565b515116613a3b8287613091565b526020613a48828a613091565b510151613a558288613091565b5201613a10565b50939250935050565b613a6d613ac2565b905f5b8251811015613ab457613a838184613091565b515f908152600660205260409020600101546001600160a01b03838116911614613aaf57600101613a70565b505050565b5050505f1960035401600355565b60405190600454808352826020810160045f5260205f20925f5b818110613af3575050613af192500383612bb1565b565b8454835260019485019487945060209093019201613adc565b805f52600560205260405f2054155f14613b7f5760045468010000000000000000811015612b4c57600181018060045581101561305d577f8a35acfbc15ff81a39ae7d344fd709f28e8600b4aa8c65c6b64bfe7fe36bd19b018190556004545f9182526005602052604090912055600190565b505f9056fe9b779b17422d0df92223018b32b4d1fa46e071723d6817e2486d003becc55f00f0c57e16840df040f15088dc2f81fe391c3923bec73e23a9662efc9c229c6a00a26469706673582212205e46d30b4ee6cf7887f66779b746ef73d715fc6a568989e35cc93b1add880f2364736f6c634300081a0033","linkReferences":{}},"methodIdentifiers":{"LIQUIDITY_MANAGER()":"328ad467","MAX_FEE_RECEIVERS()":"740cd403","MAX_POSITIONS()":"f7b24e08","NFT_MANAGER()":"b7ce1752","POOL_FACTORY()":"d8e31608","POOL_MANAGER()":"62308e85","akAddress()":"02ab54d4","burn(uint256,bytes)":"fe9d9303","claimFees()":"d294f093","claimFees(uint256)":"ac68a748","decreaseLiquidityForPosition(uint256,bytes)":"c3178cba","deposit(uint256,address,address,bytes)":"ac536ca7","getPositionDetails(uint256)":"9ecceb5e","increaseLiquidityForPosition(uint256,uint256,uint256,bytes)":"6efb8c99","initialize(address,address)":"485cc955","liquidityManager()":"33827438","mint(address,(address,address,uint256,uint256,int24,int24,address,address),bytes)":"9c2bf9a7","nftManager()":"e88b91ea","onERC721Received(address,address,uint256,bytes)":"150b7a02","owner(uint256)":"a123c33e","pool()":"16f0115b","poolFactory()":"4219dc40","poolManager()":"dc4c90d3","stake(uint256,bytes)":"0e89439b","tokenIds()":"714cff56","tokens()":"9d63848a","totalCount()":"34eafb11","unstake(uint256,bytes)":"c8fd6ed0","withdraw(uint256)":"2e1a7d4d"},"id":97}