{"abi":[{"type":"constructor","inputs":[{"name":"initialOwner","type":"address","internalType":"address"}],"stateMutability":"nonpayable"},{"type":"function","name":"akAddressToPoolManager","inputs":[{"name":"akAddress","type":"address","internalType":"address"}],"outputs":[{"name":"","type":"address","internalType":"address"}],"stateMutability":"view"},{"type":"function","name":"akAddressToPositionManager","inputs":[{"name":"","type":"address","internalType":"address"}],"outputs":[{"name":"","type":"address","internalType":"address"}],"stateMutability":"view"},{"type":"function","name":"akToStashedTokens","inputs":[{"name":"","type":"address","internalType":"address"},{"name":"","type":"address","internalType":"address"}],"outputs":[{"name":"","type":"uint256","internalType":"uint256"}],"stateMutability":"view"},{"type":"function","name":"burn","inputs":[{"name":"akAddress","type":"address","internalType":"address"},{"name":"tokenId","type":"uint256","internalType":"uint256"},{"name":"data","type":"bytes","internalType":"bytes"}],"outputs":[{"name":"","type":"tuple[]","internalType":"struct TokenAmount[]","components":[{"name":"token","type":"address","internalType":"address"},{"name":"amount","type":"uint256","internalType":"uint256"},{"name":"feeReceiver","type":"address","internalType":"address"}]}],"stateMutability":"nonpayable"},{"type":"function","name":"claimFees","inputs":[{"name":"akAddress","type":"address","internalType":"address"}],"outputs":[],"stateMutability":"nonpayable"},{"type":"function","name":"claimFees","inputs":[{"name":"akAddress","type":"address","internalType":"address"},{"name":"tokenId","type":"uint256","internalType":"uint256"}],"outputs":[],"stateMutability":"nonpayable"},{"type":"function","name":"createPool","inputs":[{"name":"poolManager","type":"address","internalType":"address"},{"name":"akAddress","type":"address","internalType":"address"},{"name":"poolConfig","type":"tuple","internalType":"struct PoolConfig","components":[{"name":"startingTick","type":"int24","internalType":"int24"},{"name":"baseToken","type":"address","internalType":"address"},{"name":"tickSpacing","type":"int24","internalType":"int24"}]},{"name":"positionConfigs","type":"tuple[]","internalType":"struct InitialPositionConfig[]","components":[{"name":"tickLower","type":"int24","internalType":"int24"},{"name":"tickUpper","type":"int24","internalType":"int24"},{"name":"akAmount","type":"uint256","internalType":"uint256"},{"name":"owner","type":"address","internalType":"address"},{"name":"feeReceiver","type":"address","internalType":"address"},{"name":"escrowType","type":"uint256","internalType":"uint256"}]},{"name":"data","type":"bytes","internalType":"bytes"}],"outputs":[{"name":"pool","type":"bytes32","internalType":"bytes32"},{"name":"positionManager","type":"address","internalType":"address"},{"name":"isToken0","type":"bool","internalType":"bool"},{"name":"positionIds","type":"uint256[]","internalType":"uint256[]"}],"stateMutability":"nonpayable"},{"type":"function","name":"decreaseLiquidityForPosition","inputs":[{"name":"akAddress","type":"address","internalType":"address"},{"name":"tokenId","type":"uint256","internalType":"uint256"},{"name":"data","type":"bytes","internalType":"bytes"}],"outputs":[{"name":"","type":"tuple[]","internalType":"struct TokenAmount[]","components":[{"name":"token","type":"address","internalType":"address"},{"name":"amount","type":"uint256","internalType":"uint256"},{"name":"feeReceiver","type":"address","internalType":"address"}]}],"stateMutability":"nonpayable"},{"type":"function","name":"exactInOnPool","inputs":[{"name":"akAddress","type":"address","internalType":"address"},{"name":"recipient","type":"address","internalType":"address"},{"name":"amountIn","type":"uint256","internalType":"uint256"},{"name":"isBuy","type":"bool","internalType":"bool"},{"name":"data","type":"bytes","internalType":"bytes"}],"outputs":[{"name":"amountInUsed","type":"uint256","internalType":"uint256"},{"name":"amountOutReceived","type":"uint256","internalType":"uint256"}],"stateMutability":"nonpayable"},{"type":"function","name":"feeSplit","inputs":[],"outputs":[{"name":"","type":"address","internalType":"contract IFeeSplit"}],"stateMutability":"view"},{"type":"function","name":"increaseLiquidityForPosition","inputs":[{"name":"akAddress","type":"address","internalType":"address"},{"name":"tokenId","type":"uint256","internalType":"uint256"},{"name":"amount0","type":"uint256","internalType":"uint256"},{"name":"amount1","type":"uint256","internalType":"uint256"},{"name":"data","type":"bytes","internalType":"bytes"}],"outputs":[{"name":"amount0Used","type":"uint256","internalType":"uint256"},{"name":"amount1Used","type":"uint256","internalType":"uint256"}],"stateMutability":"nonpayable"},{"type":"function","name":"isPoolManagerRegistered","inputs":[{"name":"","type":"address","internalType":"address"}],"outputs":[{"name":"","type":"bool","internalType":"bool"}],"stateMutability":"view"},{"type":"function","name":"mint","inputs":[{"name":"akAddress","type":"address","internalType":"address"},{"name":"amount0","type":"uint256","internalType":"uint256"},{"name":"amount1","type":"uint256","internalType":"uint256"},{"name":"tickLower","type":"int24","internalType":"int24"},{"name":"tickUpper","type":"int24","internalType":"int24"},{"name":"feeReceiver","type":"address","internalType":"address"},{"name":"data","type":"bytes","internalType":"bytes"}],"outputs":[{"name":"tokenId","type":"uint256","internalType":"uint256"},{"name":"amount0Used","type":"uint256","internalType":"uint256"},{"name":"amount1Used","type":"uint256","internalType":"uint256"}],"stateMutability":"nonpayable"},{"type":"function","name":"operator","inputs":[],"outputs":[{"name":"","type":"address","internalType":"address"}],"stateMutability":"view"},{"type":"function","name":"owner","inputs":[],"outputs":[{"name":"","type":"address","internalType":"address"}],"stateMutability":"view"},{"type":"function","name":"registerContract","inputs":[{"name":"_contract","type":"address","internalType":"address"},{"name":"isRegistered","type":"bool","internalType":"bool"}],"outputs":[],"stateMutability":"nonpayable"},{"type":"function","name":"registerPoolManager","inputs":[{"name":"poolManager","type":"address","internalType":"address"},{"name":"isRegistered","type":"bool","internalType":"bool"}],"outputs":[],"stateMutability":"nonpayable"},{"type":"function","name":"renounceOwnership","inputs":[],"outputs":[],"stateMutability":"nonpayable"},{"type":"function","name":"setFeeSplit","inputs":[{"name":"_feeSplit","type":"address","internalType":"address"}],"outputs":[],"stateMutability":"nonpayable"},{"type":"function","name":"setOperator","inputs":[{"name":"_operator","type":"address","internalType":"address"}],"outputs":[],"stateMutability":"nonpayable"},{"type":"function","name":"stake","inputs":[{"name":"akAddress","type":"address","internalType":"address"},{"name":"tokenId","type":"uint256","internalType":"uint256"},{"name":"data","type":"bytes","internalType":"bytes"}],"outputs":[],"stateMutability":"nonpayable"},{"type":"function","name":"stake","inputs":[{"name":"akAddress","type":"address","internalType":"address"},{"name":"data","type":"bytes","internalType":"bytes"}],"outputs":[],"stateMutability":"nonpayable"},{"type":"function","name":"topUpAk","inputs":[{"name":"akAddress","type":"address","internalType":"address"},{"name":"token","type":"address","internalType":"address"},{"name":"amount","type":"uint256","internalType":"uint256"}],"outputs":[],"stateMutability":"nonpayable"},{"type":"function","name":"transferOwnership","inputs":[{"name":"newOwner","type":"address","internalType":"address"}],"outputs":[],"stateMutability":"nonpayable"},{"type":"function","name":"unstake","inputs":[{"name":"akAddress","type":"address","internalType":"address"},{"name":"data","type":"bytes","internalType":"bytes"}],"outputs":[],"stateMutability":"nonpayable"},{"type":"function","name":"unstake","inputs":[{"name":"akAddress","type":"address","internalType":"address"},{"name":"tokenId","type":"uint256","internalType":"uint256"},{"name":"data","type":"bytes","internalType":"bytes"}],"outputs":[],"stateMutability":"nonpayable"},{"type":"function","name":"withdrawFromAk","inputs":[{"name":"akAddress","type":"address","internalType":"address"},{"name":"token","type":"address","internalType":"address"},{"name":"amount","type":"uint256","internalType":"uint256"}],"outputs":[],"stateMutability":"nonpayable"},{"type":"event","name":"AKStashTopUp","inputs":[{"name":"akAddress","type":"address","indexed":false,"internalType":"address"},{"name":"token","type":"address","indexed":false,"internalType":"address"},{"name":"amount","type":"uint256","indexed":false,"internalType":"uint256"}],"anonymous":false},{"type":"event","name":"AKStashWithdraw","inputs":[{"name":"akAddress","type":"address","indexed":false,"internalType":"address"},{"name":"token","type":"address","indexed":false,"internalType":"address"},{"name":"amount","type":"uint256","indexed":false,"internalType":"uint256"}],"anonymous":false},{"type":"event","name":"FeeSplitChanged","inputs":[{"name":"newFeeSplit","type":"address","indexed":false,"internalType":"address"}],"anonymous":false},{"type":"event","name":"OperatorChanged","inputs":[{"name":"operator","type":"address","indexed":true,"internalType":"address"}],"anonymous":false},{"type":"event","name":"OwnershipTransferred","inputs":[{"name":"previousOwner","type":"address","indexed":true,"internalType":"address"},{"name":"newOwner","type":"address","indexed":true,"internalType":"address"}],"anonymous":false},{"type":"event","name":"PoolManagerRegistered","inputs":[{"name":"akAddress","type":"address","indexed":true,"internalType":"address"},{"name":"poolManager","type":"address","indexed":true,"internalType":"address"},{"name":"positionManager","type":"address","indexed":true,"internalType":"address"}],"anonymous":false},{"type":"event","name":"PoolManagerRegistered","inputs":[{"name":"poolManager","type":"address","indexed":false,"internalType":"address"},{"name":"isWhitelisted","type":"bool","indexed":false,"internalType":"bool"}],"anonymous":false},{"type":"event","name":"RegisteredContract","inputs":[{"name":"_contract","type":"address","indexed":false,"internalType":"address"},{"name":"isRegistered","type":"bool","indexed":false,"internalType":"bool"}],"anonymous":false},{"type":"error","name":"BadPositionConfig","inputs":[]},{"type":"error","name":"InsufficientFunds","inputs":[]},{"type":"error","name":"InvalidAddress","inputs":[]},{"type":"error","name":"InvalidAmount","inputs":[]},{"type":"error","name":"OwnableInvalidOwner","inputs":[{"name":"owner","type":"address","internalType":"address"}]},{"type":"error","name":"OwnableUnauthorizedAccount","inputs":[{"name":"account","type":"address","internalType":"address"}]},{"type":"error","name":"ReentrancyGuardReentrantCall","inputs":[]},{"type":"error","name":"SafeERC20FailedOperation","inputs":[{"name":"token","type":"address","internalType":"address"}]},{"type":"error","name":"Unauthorized","inputs":[]},{"type":"error","name":"Unavailable","inputs":[]},{"type":"error","name":"UnsupportedToken","inputs":[]}],"bytecode":{"object":"0x6080346100e157601f61271538819003918201601f19168301916001600160401b038311848410176100e5578084926020946040528339810103126100e157516001600160a01b038116908190036100e15780156100ce575f80546001600160a01b031981168317825560405192916001600160a01b03909116907f8be0079c531659141344cd1fd0a4f28419497f9722a3daafe3b4186f6b6457e09080a360017f9b779b17422d0df92223018b32b4d1fa46e071723d6817e2486d003becc55f005561261b90816100fa8239f35b631e4fbdf760e01b5f525f60045260245ffd5b5f80fd5b634e487b7160e01b5f52604160045260245ffdfe60806040526004361015610011575f80fd5b5f803560e01c806305be00bd14611a6f5780630ff4f839146119d657806315a0ea6a146119465780632a487f4f146119065780632b10d5a1146114c75780632c83433c146114425780633067e6b81461138157806336fd6911146113445780633e12170f146112a157806344d17187146111ea578063566fbf9b14611109578063570ca735146110e05780635c46ff99146110335780635ffb842f14610c765780636373ea6914610c4d5780636456e11414610b67578063715018a614610b0d5780638da5cb5b14610ae657806395bdb53514610a3a5780639677713b14610906578063b3ab15fb1461089e578063baab915c146106a0578063c4113b8814610603578063c88d9ba6146104e6578063e803ba8514610493578063f2fde38b1461040d5763fcb5ce2614610143575f80fd5b3461040a5760a036600319011261040a5761015c611cfe565b90604435606435926084356001600160401b03811161040657610183903690600401611d6e565b9361018c612512565b61019461218d565b82159081806103fe575b6103ef576001600160a01b036101b3846121c5565b169060405194634eb1c24560e11b8652604086600481865afa9485156103e457879688966103ad575b5060018060a01b03169384885260056020526040882060018060a01b0388165f526020528160405f2054108015610386575b61037757918760409492610260999a941561035e575b82610345575b8551998a9586948593636efb8c9960e01b8552602435600486015260248501526044840152608060648401526084830190611f34565b03925af192831561033a579460409581958295610305575b50856102d6575b50836102a6575b50505060015f805160206125c68339815191525582519182526020820152f35b859181526005602052209060018060a01b03165f52602052825f206102cc82825461211c565b90555f8080610286565b82825260056020528682209060018060a01b03165f52602052855f206102fd86825461211c565b90555f61027f565b909450610329919550863d8811610333575b6103218183611d4d565b810190611f1e565b949094935f610278565b503d610317565b6040513d87823e3d90fd5b61035983856001600160a01b038b16612404565b61022a565b61037281856001600160a01b038c16612404565b610224565b63356680b760e01b8852600488fd5b5084885260056020526040882060018060a01b0387165f526020528260405f20541061020e565b9095506103d391965060403d6040116103dd575b6103cb8183611d4d565b810190611efd565b959095945f6101dc565b503d6103c1565b6040513d89823e3d90fd5b63162908e360e11b8552600485fd5b50801561019e565b8380fd5b80fd5b503461040a57602036600319011261040a57610427611cfe565b61042f6121e8565b6001600160a01b0316801561047f5781546001600160a01b03198116821783556001600160a01b03167f8be0079c531659141344cd1fd0a4f28419497f9722a3daafe3b4186f6b6457e08380a380f35b631e4fbdf760e01b82526004829052602482fd5b503461040a57604036600319011261040a5760406104af611cfe565b916104b8611d14565b9260018060a01b031681526005602052209060018060a01b03165f52602052602060405f2054604051908152f35b503461040a576104f536611e70565b906104fe612512565b61050661218d565b6001600160a01b0390610518906121c5565b1682604051926338a67fab60e11b84528184600481865afa9384156105f85782946105d4575b50815b84518110156105bf57610554818661214e565b51843b1561040657838361057d926040519384928392630e89439b60e01b8452600484016120be565b038183895af19081156105b457849161059b575b5050600101610541565b816105a591611d4d565b6105b057825f610591565b8280fd5b6040513d86823e3d90fd5b8260015f805160206125c68339815191525580f35b6105f19194503d8084833e6105e98183611d4d565b810190612129565b925f61053e565b6040513d84823e3d90fd5b503461040a578061061336611dc3565b9161061c612512565b61062461218d565b6001600160a01b0390610636906121c5565b1691823b1561069b5761066292849283604051809681958294630c8fd6ed60e41b8452600484016120be565b03925af180156105f857610686575b5060015f805160206125c68339815191525580f35b8161069091611d4d565b61040a57805f610671565b505050fd5b503461040a576106af36611eaf565b92916106b96121e8565b6106c161218d565b831561088f576004919060406001600160a01b036106de836121c5565b16815194858092634eb1c24560e11b82525afa80156105b4578493859161086a575b506001600160a01b03838116941684141590849082610856575b50506108475760018060a01b038116808552600560205260408520845f526020528560405f205410610838578452600560205260408420835f5260205260405f2061076686825461211c565b9055835460405163a9059cbb60e01b86526001600160a01b0390911660045260248690529260208560448180855af16001865114811615610819575b846040521561080757506001600160a01b0390811683521660208201526040810192909252907f30f1be9b92a40647a5264af56d1712a73293b28226e97f67f24b594531668e259080606081015b0390a160015f805160206125c68339815191525580f35b635274afe760e01b8552600452602484fd5b600181151661082f57813b15153d1516166107a2565b843d87823e3d90fd5b63356680b760e01b8552600485fd5b63350b944160e11b8452600484fd5b6001600160a01b031614159050835f61071a565b905061088691935060403d6040116103dd576103cb8183611d4d565b9290925f610700565b63162908e360e11b8352600483fd5b503461040a57602036600319011261040a576108b8611cfe565b6108c06121e8565b600180546001600160a01b0319166001600160a01b039290921691821790557f4721129e0e676ed6a92909bb24e853ccdd63ad72280cc2e974e38e480e0e6e548280a280f35b503461040a5761091536611eaf565b929161091f61218d565b831561088f57600460406001600160a01b0361093a846121c5565b16815192838092634eb1c24560e11b82525afa80156105b45784918591610a19575b506001600160a01b03848116921682141590829082610a05575b505061084757846109db7f830654e92c5a06574045ef466735f715b6349b88ee11226da5d88546b278b47995966107f09360018060a01b0386168952600560205260408920815f5260205260405f206109d0838254612040565b905530903390612372565b604080516001600160a01b0394851681529490931660208501529183019190915281906060820190565b6001600160a01b031614159050815f610976565b9050610a34915060403d6040116103dd576103cb8183611d4d565b5f61095c565b503461040a57604036600319011261040a57610a54611cfe565b90610a5d611d3e565b610a656121e8565b6001600160a01b038316928315610ad75782937f2bd57ae5d645c5a1504782e37691625e5005028bb66e2a7c56e70410690e8e4693526004602052610ab982604086209060ff801983541691151516179055565b604080516001600160a01b039290921682529115156020820152a180f35b63e6c4247b60e01b8352600483fd5b503461040a578060031936011261040a57546040516001600160a01b039091168152602090f35b503461040a578060031936011261040a57610b266121e8565b80546001600160a01b03198116825581906001600160a01b03167f8be0079c531659141344cd1fd0a4f28419497f9722a3daafe3b4186f6b6457e08280a380f35b503461040a57610b7636611e70565b90610b7f612512565b610b8761218d565b6001600160a01b0390610b99906121c5565b1682604051926338a67fab60e11b84528184600481865afa9384156105f8578294610c31575b50815b84518110156105bf57610bd5818661214e565b51843b15610406578383610bfe926040519384928392630c8fd6ed60e41b8452600484016120be565b038183895af19081156105b4578491610c1c575b5050600101610bc2565b81610c2691611d4d565b6105b057825f610c12565b610c469194503d8084833e6105e98183611d4d565b925f610bbf565b503461040a578060031936011261040a576002546040516001600160a01b039091168152602090f35b503461040a5760e036600319011261040a57610c90611cfe565b906024359160443592606435918260020b80930361040657608435928360020b80940361102f5760a4356001600160a01b0381169081900361102b5760c4356001600160401b03811161102757610ceb903690600401611d6e565b94610cf4612512565b610cfc61218d565b841595868061101f575b611010576001600160a01b03610d1b866121c5565b169260405199634eb1c24560e11b8b5260408b600481885afa968715611005578a9b8b98610fde575b5060018060a01b031698898b52600560205260408b2060018060a01b038d165f526020528860405f2054108015610fb7575b610fa85715610f8f575b80610f76575b6040519361010085018581106001600160401b03821117610f625760409081526001600160a01b03808e168752898116602088019081528288019b8c526060888101958652608089019a8b5260a089019485523060c08a0190815260e08a019788529351639c2bf9a760e01b8152600481018f90529851831660248a01529051821660448901529a516064880152925160848701529651600290810b60a48701529051900b60c48501529451851660e4840152519093166101048201526101406101248201529391849190829088908290610e6690610144830190611f34565b03925af19283156105b4578480938195610f15575b5060609684610ee4575b5084610eb2575b50505060015f805160206125c68339815191525560405192835260208301526040820152f35b60409181526005602052209060018060a01b03165f5260205260405f20610eda83825461211c565b90555f8080610e8c565b8282526005602052604082209060018060a01b03165f5260205260405f20610f0d85825461211c565b90555f610e85565b955092509492506060843d606011610f5a575b81610f3560609383611d4d565b81010312610f56578351602085015160409095015193959094926060610e7b565b5080fd5b3d9150610f28565b634e487b7160e01b8c52604160045260248cfd5b610f8a81866001600160a01b038a16612404565b610d86565b610fa388866001600160a01b038e16612404565b610d80565b63356680b760e01b8b5260048bfd5b50898b52600560205260408b2060018060a01b0389165f526020528160405f205410610d76565b909750610ffb919b5060403d6040116103dd576103cb8183611d4d565b9a909a965f610d44565b6040513d8c823e3d90fd5b63162908e360e11b8852600488fd5b508815610d06565b8680fd5b8580fd5b8480fd5b503461040a57604036600319011261040a578061104e611cfe565b61105661218d565b816001600160a01b03611068836121c5565b1660246040518095819363158d14e960e31b8352833560048401525af19081156110d55761109d9284926110b1575b5061220e565b60015f805160206125c68339815191525580f35b6110ce9192503d8086833e6110c68183611d4d565b81019061201b565b905f611097565b6040513d85823e3d90fd5b503461040a578060031936011261040a576001546040516001600160a01b039091168152602090f35b503461040a576111608161111c36611dc3565b90611128939293612512565b61113061218d565b6001600160a01b03611141856121c5565b16908360405180978195829463618bc65d60e11b8452600484016120be565b03925af19182156110d557926111b3938180946111b7575b505081611189849261118e9461220e565b612541565b60015f805160206125c683398151915255604051918291602083526020830190611e08565b0390f35b611189945061118e939250906111de913d8091833e6111d68183611d4d565b8101906120d5565b91909193819350611178565b503461040a57611239816111fd36611dc3565b90611209939293612512565b6001600160a01b0361121a856121c5565b16908360405180978195829463fe9d930360e01b8452600484016120be565b03925af19182156110d557926111b393818094611276575b50508161118984926112629461220e565b604051918291602083526020830190611e08565b611189945061126293925090611295913d8091833e6111d68183611d4d565b91909193819350611251565b5034611340576112b036611dc3565b916112b9612512565b6112c161218d565b6001600160a01b03906112d3906121c5565b1691823b15611340576112ff925f9283604051809681958294630e89439b60e01b8452600484016120be565b03925af1801561133557611322575060015f805160206125c68339815191525580f35b61132e91505f90611d4d565b5f80610671565b6040513d5f823e3d90fd5b5f80fd5b34611340576020366003190112611340576001600160a01b03611365611cfe565b165f526004602052602060ff60405f2054166040519015158152f35b34611340576020366003190112611340576001600160a01b036113a2611cfe565b165f908152600360205260409020546001600160a01b031680156114345760206004916040519283809263dc4c90d360e01b82525afa8015611335575f906113fa575b6040516001600160a01b039091168152602090f35b506020813d60201161142c575b8161141460209383611d4d565b8101031261134057611427602091611ee9565b6113e5565b3d9150611407565b6282b42960e81b5f5260045ffd5b346113405760203660031901126113405761145b611cfe565b6114636121e8565b6001600160a01b031680156114b8576020817f383b72b5dc93c1e8b72b286beaa7159d0f197ea394eb23eccc52f91ab9f0504f926bffffffffffffffffffffffff60a01b6002541617600255604051908152a1005b63e6c4247b60e01b5f5260045ffd5b346113405760e0366003190112611340576114e0611cfe565b6114e8611d14565b9060603660431901126113405760a4356001600160401b03811161134057366023820112156113405780600401356001600160401b0381116113405736602460c08302840101116113405760c4356001600160401b03811161134057611552903690600401611d6e565b9361155b612176565b61156361218d565b6001600160a01b03169081156114b8576001600160a01b0384165f8181526004602052604090205490919060ff1615611434575f95865b828810156115c0576115b8600191606460c08b028901013590612040565b97019661159a565b86869180156118f7576115df916115d98230338b612372565b87612404565b604435918260020b9283810361134057506064356001600160a01b0381169390849003611340576084358060020b9081810361134057506040519060808201928284106001600160401b038511176118e3576040938452825260208201898152838301968752606083019182529251636738a0fb60e11b81529151600290810b600484015292516001600160a01b0390811660248085019190915296511660448301525190910b606482015260c0608482015260c481018590529260e4840192849291015f5b8681106118655750506116c65f9383926003198483030160a4850152611f34565b038183875af1928315611335575f925f905f935f966117fb575b508551036117ec5781156114b857815f52600460205260ff60405f20541615611434575f868152600360205260409020546001600160a01b03166117dd578484848893845f52600360205260405f209060018060a01b031690816bffffffffffffffffffffffff60a01b825416179055806040519687967f798173c48852737ee4b41b552a4431541aa1c4e68d4e3ac3298fe1bdf26a75a75f80a460015f805160206125c68339815191525560808501928552602085015215156040840152608060608401528151809152602060a084019201905f5b8181106117c4575050500390f35b82518452859450602093840193909201916001016117b6565b63a3b8915f60e01b5f5260045ffd5b63195f807960e01b5f5260045ffd5b945094505090503d805f843e6118118184611d4d565b8201906080838303126113405782519161182d60208501611ee9565b9360408101519182151583036113405760608201516001600160401b0381116113405761185a9201612061565b9293909294876116e0565b9192509260c08060019261187887611e62565b60020b815261188960208801611e62565b60020b602082015260408701356040820152838060a01b036118ad60608901611d2a565b166060820152838060a01b036118c560808901611d2a565b16608082015260a087013560a08201520194019101908492916116a5565b634e487b7160e01b5f52604160045260245ffd5b63162908e360e11b5f5260045ffd5b34611340576020366003190112611340576001600160a01b03611927611cfe565b165f526003602052602060018060a01b0360405f205416604051908152f35b34611340576020366003190112611340575f611960611cfe565b61196861218d565b816001600160a01b0361197a836121c5565b1660046040518095819363d294f09360e01b83525af1908115611335576119a7925f926119ba575061220e565b60015f805160206125c683398151915255005b6119cf9192503d805f833e6110c68183611d4d565b9083611097565b34611340576040366003190112611340576119ef611cfe565b6119f7611d3e565b6119ff6121e8565b6001600160a01b0382169182156114b8577fa58a7a7166bfb44d0184d9af3d57de7246f3715ea71b9f14df49188da3707ec5925f526006602052611a528260405f209060ff801983541691151516179055565b604080516001600160a01b039290921682529115156020820152a1005b346113405760a036600319011261134057611a88611cfe565b611a90611d14565b90606435906044358215158303611340576084356001600160401b03811161134057611ac0903690600401611d6e565b93611ac9612176565b611ad161218d565b81156118f7576001600160a01b03611ae8846121c5565b169460405194634eb1c24560e11b86526040866004818a5afa958615611335575f905f97611cda575b506040516316f0115b60e01b8152956020876004818c5afa968715611335575f97611c9b575b50959694956004956020936001600160a01b0380851693169290921492909115611c84578215611c7d57505b5015965b60405163dc4c90d360e01b815294859182905afa928315611335575f93611c37575b50604094611bda5f92875198899788968795637b3b9ed760e11b8752600487015233602487015260018060a01b0316604486015260648501521515608484015260c060a484015260c4830190611f34565b03926001600160a01b03165af1908115611335576040915f915f91611c18575b5060015f805160206125c68339815191525582519182526020820152f35b9050611c319150823d8411610333576103218183611d4d565b83611bfa565b9092506020813d602011611c75575b81611c5360209383611d4d565b8101031261134057604094611bda611c6b5f93611ee9565b9492505094611b89565b3d9150611c46565b9050611b63565b908215611c9457505b5096611b67565b9050611c8d565b9291959650966020833d602011611cd2575b81611cba60209383611d4d565b81010312611340579151919691959490916020611b37565b3d9150611cad565b9050611cf691965060403d6040116103dd576103cb8183611d4d565b959088611b11565b600435906001600160a01b038216820361134057565b602435906001600160a01b038216820361134057565b35906001600160a01b038216820361134057565b60243590811515820361134057565b90601f801991011681019081106001600160401b038211176118e357604052565b81601f82011215611340578035906001600160401b0382116118e35760405192611da2601f8401601f191660200185611d4d565b8284526020838301011161134057815f926020809301838601378301015290565b6060600319820112611340576004356001600160a01b0381168103611340579160243591604435906001600160401b03821161134057611e0591600401611d6e565b90565b90602080835192838152019201905f5b818110611e255750505090565b825180516001600160a01b039081168652602082810151818801526040928301519091169186019190915260609094019390920191600101611e18565b35908160020b820361134057565b906040600319830112611340576004356001600160a01b03811681036113405791602435906001600160401b03821161134057611e0591600401611d6e565b6060906003190112611340576004356001600160a01b038116810361134057906024356001600160a01b0381168103611340579060443590565b51906001600160a01b038216820361134057565b919082604091031261134057611e056020611f1784611ee9565b9301611ee9565b9190826040910312611340576020825192015190565b805180835260209291819084018484015e5f828201840152601f01601f1916010190565b6001600160401b0381116118e35760051b60200190565b81601f8201121561134057805190611f8682611f58565b92611f946040519485611d4d565b8284526020606081860194028301019181831161134057602001925b828410611fbe575050505090565b606084830312611340576040519060608201908282106001600160401b038311176118e357606092602092604052611ff587611ee9565b8152828701518382015261200b60408801611ee9565b6040820152815201930192611fb0565b906020828203126113405781516001600160401b03811161134057611e059201611f6f565b9190820180921161204d57565b634e487b7160e01b5f52601160045260245ffd5b9080601f8301121561134057815161207881611f58565b926120866040519485611d4d565b81845260208085019260051b82010192831161134057602001905b8282106120ae5750505090565b81518152602091820191016120a1565b604090611e05939281528160208201520190611f34565b9190916040818403126113405780516001600160401b03811161134057836120fe918301611f6f565b9260208201516001600160401b03811161134057611e059201611f6f565b9190820391821161204d57565b906020828203126113405781516001600160401b03811161134057611e059201612061565b80518210156121625760209160051b010190565b634e487b7160e01b5f52603260045260245ffd5b335f52600660205260ff60405f2054161561143457565b60025f805160206125c683398151915254146121b65760025f805160206125c683398151915255565b633ee5aeb560e01b5f5260045ffd5b6001600160a01b039081165f908152600360205260409020541680156114345790565b5f546001600160a01b031633036121fb57565b63118cdaa760e01b5f523360045260245ffd5b600254919290916001600160a01b0316156117dd575f5b835181101561230757602061223a828661214e565b51015161224a575b600101612225565b6001600160a01b0361225c828661214e565b51516002546001600160a01b03169291166020612279838861214e565b510151604051636eb1769f60e11b8152306004820152602481018590529390602085604481865afa948515611335575f956122ce575b50906122c16122c79392600196612040565b91612404565b9050612242565b945091906020853d82116122ff575b816122ea60209383611d4d565b810103126113405793519390916122c16122af565b3d91506122dd565b50919060018060a01b036002541691823b1561134057612355925f92836040518096819582946372002e2160e11b845260018060a01b03166004840152604060248401526044830190611e08565b03925af18015611335576123665750565b5f61237091611d4d565b565b6040516323b872dd60e01b5f9081526001600160a01b039384166004529290931660245260449390935260209060648180865af19060015f51148216156123e3575b6040525f606052156123c35750565b635274afe760e01b5f9081526001600160a01b0391909116600452602490fd5b9060018115166123fb57823b15153d151616906123b4565b503d5f823e3d90fd5b916040519163095ea7b360e01b5f5260018060a01b031691826004528160245260205f60448180885af19060015f5114821615612503575b6040521561244957505050565b60405163095ea7b360e01b5f52826004525f60245260205f60448180885af19060015f51148216156124eb575b604052156124cd576040519163095ea7b360e01b5f5260045260245260205f60448180865af19060015f51148216156124b5575b604052156123c35750565b9060018115166123fb57823b15153d151616906124aa565b635274afe760e01b5f9081526001600160a01b038416600452602490fd5b9060018115166123fb57843b15153d15161690612476565b90843b15153d1516169061243c565b5f546001600160a01b03163314158061252c575b61143457565b506001546001600160a01b0316331415612526565b5f5b82518110156125c05780602061255b6001938661214e565b510151612569575b01612543565b6020612575828661214e565b510151828060a01b0384165f52600560205260405f20838060a01b0361259b848861214e565b515116848060a01b03165f526020526125b960405f20918254612040565b9055612563565b50505056fe9b779b17422d0df92223018b32b4d1fa46e071723d6817e2486d003becc55f00a26469706673582212201d3ca0ef525a4be2132b1eadfb2bcbe5ed80c0dde3be1cc64f59e92594f20e3764736f6c634300081a0033","linkReferences":{}},"methodIdentifiers":{"akAddressToPoolManager(address)":"3067e6b8","akAddressToPositionManager(address)":"2a487f4f","akToStashedTokens(address,address)":"e803ba85","burn(address,uint256,bytes)":"44d17187","claimFees(address)":"15a0ea6a","claimFees(address,uint256)":"5c46ff99","createPool(address,address,(int24,address,int24),(int24,int24,uint256,address,address,uint256)[],bytes)":"2b10d5a1","decreaseLiquidityForPosition(address,uint256,bytes)":"566fbf9b","exactInOnPool(address,address,uint256,bool,bytes)":"05be00bd","feeSplit()":"6373ea69","increaseLiquidityForPosition(address,uint256,uint256,uint256,bytes)":"fcb5ce26","isPoolManagerRegistered(address)":"36fd6911","mint(address,uint256,uint256,int24,int24,address,bytes)":"5ffb842f","operator()":"570ca735","owner()":"8da5cb5b","registerContract(address,bool)":"0ff4f839","registerPoolManager(address,bool)":"95bdb535","renounceOwnership()":"715018a6","setFeeSplit(address)":"2c83433c","setOperator(address)":"b3ab15fb","stake(address,bytes)":"c88d9ba6","stake(address,uint256,bytes)":"3e12170f","topUpAk(address,address,uint256)":"9677713b","transferOwnership(address)":"f2fde38b","unstake(address,bytes)":"6456e114","unstake(address,uint256,bytes)":"c4113b88","withdrawFromAk(address,address,uint256)":"baab915c"},"id":94}